:020000040800F2
:10000000C0060020290200086F1000088D0F0008AC
:100010006D1000081F040008E51300080000000030
:10002000000000000000000000000000C1100008F7
:10003000210400080000000071100008C31000082F
:10004000430200084302000843020008430200087C
:10005000430200084302000843020008430200086C
:10006000430200084302000843020008430200085C
:10007000430200084302000843020008430200084C
:10008000430200084302000843020008430200083C
:10009000430200084302000843020008430200082C
:1000A000430200084302000843020008430200081C
:1000B000430200084302000843020008430200080C
:1000C00043020008430200084302000843020008FC
:1000D00043020008430200084302000843020008EC
:1000E00043020008430200084302000843020008DC
:1000F00043020008430200084302000843020008CC
:1001000043020008430200084302000843020008BB
:1001100043020008430200084302000843020008AB
:10012000430200084302000843020008430200089B
:10013000430200084302000843020008430200088B
:10014000430200084302000843020008430200087B
:10015000430200084302000843020008430200086B
:10016000430200084302000843020008430200085B
:100170004302000843020008430200080000000098
:10018000430200084302000800F002F800F03CF8C7
:100190000AA090E8000C82448344AAF10107DA45E2
:1001A00001D100F031F8AFF2090EBAE80F0013F0F8
:1001B000010F18BFFB1A43F001031847B4120000E7
:1001C000D4120000103A24BF78C878C1FAD8520778
:1001D00024BF30C830C144BF04680C6070470000C1
:1001E0000023002400250026103A28BF78C1FBD840
:1001F000520728BF30C148BF0B6070471FB501F0E0
:1002000029F91FBD10B510BD00F0CFF81146FFF75A
:10021000F5FF01F0F9F800F0EDF803B4FFF7F2FF95
:1002200003BC00F0F5F80000094880470948004782
:10023000FEE7FEE7FEE7FEE7FEE7FEE7FEE7FEE796
:10024000FEE7FEE704480549054A064B70470000F3
:100250005D11000889010008C0000020C0060020D0
:10026000C0020020C002002053EA020C00F06980A6
:100270002DE9F04B4FF00006002B1FBFB3FA83F5BA
:1002800003FA05F424FA05F65E4012BF1643B2FAEB
:1002900082F502FA05F4C5F120051EBF22FA05FC1D
:1002A00044EA0C04203556EA044C4FEA144418BFC3
:1002B000641C4FF000084FF00009904271EB030CF2
:1002C00039D3002919BFB1FA81F701FA07F6B0FA5C
:1002D00080F700FA07F6C7F120071EBF20FA07FCD7
:1002E00046EA0C062037B6FBF4FCA7EB0507103FE7
:1002F00007F01F0BCBF120060CFA0BFB2CFA06F6CD
:1003000044BFB3460026202FA4BF5E464FF0000B2B
:100310005BEA060C08BF4FF0010B19EB0B09ABFBB6
:10032000027C48EB0608C01B06FB02CC0BFB03CC8F
:1003300071EB0C01C1E70B46024641464846BDE859
:10034000F08B13B54FF000004FF00001AFF30080C9
:10035000BDE81C4070474FF0000200B513469446BC
:100360009646203922BFA0E80C50A0E80C50B1F10D
:100370002001BFF4F7AF090728BFA0E80C5048BF21
:100380000CC05DF804EB890028BF40F8042B08BFBF
:10039000704748BF20F8022B11F0804F18BF00F8BB
:1003A000012B7047704770477047754600F02CF876
:1003B000AE4605006946534620F00700854618B052
:1003C00020B5FFF73FFFBDE820404FF000064FF09B
:1003D00000074FF000084FF0000B21F00701AC467A
:1003E000ACE8C009ACE8C009ACE8C009ACE8C00999
:1003F0008D46704710B50446AFF300802046BDE837
:100400001040FFF70ABF000000487047600000205E
:1004100001491820ABBEFEE7260002007047FEE748
:10042000704772B6FEE7000070B5044600F00CF9A4
:100430000546601C02D004480078044400F004F92A
:10044000401BA042FAD370BD080000202DE9F84FF0
:10045000DFF8BCA10022012503264FF00F090AF1A5
:10046000040BAAF1040E00BF0B6805FA02F4234046
:10047000A34270D10F7907F00307012F01D0022F9B
:1004800016D187684FEA420806FA08FC27EA0C07EB
:10049000D1F80CC00CFA08FC4CEA070CC0F808C0F4
:1004A0004768A7430C79C4F3001494403C4344606C
:1004B0000C79E443A4070AD0C4684FEA420C06FA58
:1004C0000CF7BC438F6807FA0CF72743C7600C7919
:1004D00004F00304022C12D1D40800EB840CDCF8E5
:1004E00020405707FF0E09FA07F824EA0804D1F85C
:1004F000108008FA07F848EA0408CCF8208004685D
:100500004FEA420C06FA0CF7BC430F7907F00307D9
:1005100007FA0CF7274307604C6814F4403F70D08B
:100520003C4C276847F480472760246822F0030783
:1005300004F480440094384C07EB040CDCF80848C1
:1005400097074FEA177809FA08F7BC43334FB842C8
:1005500002D1002724E054E0314FB84201D10127F5
:100560001EE0304FB84201D1022719E02E4FB842A9
:1005700001D1032714E02D4FB84201D104270FE029
:100580002B4FB84201D105270AE02A4FB84201D1CA
:10059000062705E0284FB84201D1072700E00827C9
:1005A00007FA08F72743CCF80878DAF800405746EE
:1005B000D1F804C09C435FEACC2C00D51C433C60BE
:1005C000DBF800405F46D1F804C09C435FEA8C2C06
:1005D00000D51C433C60DEF800407746D1F804C0EB
:1005E0009C435FEA8C3C00D51C433C60084F083FAD
:1005F0003C68D1F804C09C435FEACC3C00D51C4366
:100600003C60521C102AFFF42FAFBDE8F88F0000A9
:10061000083C0140443802400030014000000240E4
:100620000004024000080240000C0240001002409A
:100630000014024000180240001C02400AB181610F
:1006400070470904FBE7000001488068704700001C
:1006500008000020024881680278114481607047D8
:10066000080000200B4810B5016841F400710160DA
:10067000016841F480610160016841F480710160AA
:10068000032000F061F80F2000F006F800F024F8D5
:10069000002010BD003C024070B50D4D04464FF4E3
:1006A0007A712878B1FBF0F00A490968B1FBF0F0E3
:1006B00000F0DCFA48B9102C07D200222146501E67
:1006C00000F022F800206C6070BD012070BD0000B9
:1006D00008000020140000200A4808B5016841F411
:1006E00080410160006800F4804000900548001FD0
:1006F000016841F080510160006800F08050009076
:1007000008BD000044380240F0B40E4B1B680C4694
:10071000C3F30223C3F10705042D00D90425191DD5
:10072000072901D2002300E0DB1E012606FA05F1AD
:10073000491E214099409E40761E16403143F0BC30
:1007400000F051BE0CED00E0064900F00702086819
:100750004FF6FF03184040EA0220034A10430860A6
:10076000704700000CED00E00000FA052DE9F047AD
:100770000E46050065D0DFF81481D8F80000F7B206
:1007800000F00700B04207D288F80070D8F80000E7
:1007900000F00700B04254D128683D4C810712D5C3
:1007A000400703D5206840F4E05020602878000717
:1007B00003D5206840F4604020602068A96820F0DC
:1007C000F000084320602878C0072DD030496868C1
:1007D0000839012812D0022813D0032811D0096843
:1007E000890700292DDA216821F0030101432160E6
:1007F000FFF72AFF814641F2883A0EE00968890333
:10080000EFE709688901ECE7FFF71EFFA0EB09019C
:10081000514502D90320BDE8F0872068696800F0DF
:100820000C00B0EB810FEFD1D8F80010404601F07A
:100830000701B14207D90770006800F00700B04215
:1008400001D00120E7E72878400705D52068E9684E
:1008500020F4E050084320602878000706D520687F
:10086000296920F4604040EAC100206000F018F8D7
:100870002168084AC1F30311515CC8400649086069
:1008800006480068FFF708FF0020C4E7003C02406C
:10089000083802405E140008140000200C000020FC
:1008A000154810B5006810F00C02144813D0411020
:1008B000042A0FD0082A0ED10F4C241F2268236867
:1008C00002F03F025B0207D52068C0F38810A0FB4E
:1008D000010106E0084610BD2168C1F38811A1FBA3
:1008E00000010023FFF7C0FC2168C1F30141491C4E
:1008F0004900B0FBF1F010BD083802400024F400BC
:100900002DE9F84F04006ED02078DFF84C93C00733
:10091000A9F104054AD009F104000168C1F381017D
:10092000012908D00068C0F3810002280AD1D9F853
:100930000000400206D52868800337D5606800288B
:10094000E1D033E06068B0F5803F10D0B0F5A02F63
:10095000286810D020F480302860286820F4802097
:1009600028606068A8B1FFF76FFE06460DE02868B2
:1009700040F48030F4E740F480202860F7E700BFBF
:10098000FFF762FE801B642873D828688003F7D5C0
:100990000CE0FFF759FE064605E000BFFFF754FEE6
:1009A000801B6428F0D828688003F7D42078DFF80B
:1009B000AC8280074FF0000A3ED5A748001D0168B1
:1009C00011F00C0F08D00068C0F3810002280BD191
:1009D000D9F80000400207D42868800716D5E068DF
:1009E000012800D112E033E1E068B8B10120C8F875
:1009F0000000FFF729FE064605E000BFFFF724FED2
:100A0000801B0228C0D828688007F7D5286821698C
:100A100020F0F80040EAC10028600DE0C8F800A00E
:100A2000FFF712FE064604E0FFF70EFE801B0228C9
:100A30001FD828688007F7D42078000722D5864F72
:100A400087486169703771B101210160FFF7FCFDD2
:100A5000064604E0FFF7F8FD801B022809D8386835
:100A60008007F7D50EE0C0F800A0FFF7EDFD0646C1
:100A700005E082E0FFF7E8FD801B02287DD838689A
:100A80008007F7D42078400768D5DFF8CCB100277D
:100A90000BF13C0BDBF80000C0000BD4DBF80010BE
:100AA00041F08051CBF80010DBF80000012700F086
:100AB000805000906B4E3068C00510D4306840F410
:100AC00080703060FFF7C0FD009005E0FFF7BCFDCF
:100AD0000099401A022850D83068C005F6D55E4EFD
:100AE000A0686C3601280FD00528306810D020F09F
:100AF00001003060306820F004003060A068B8B1B8
:100B0000FFF7A2FD00900FE0306840F00100F4E72D
:100B100040F004003060F7E7FFF796FD0099411AB6
:100B200041F28830814266D830688007F4D50EE003
:100B3000FFF78AFD009007E0FFF786FD0099411A54
:100B400041F28830814256D830688007F4D42FB102
:100B5000DBF8001021F08051CBF80010A069C8B379
:100B60003D49091D0968C1F3810102294AD00228C3
:100B7000504607D0C8F8600000E03CE0FFF764FD95
:100B800004463BE04746C8F86000FFF75DFD0646B7
:100B900005E000BFFFF758FD801B02282BD828680E
:100BA0008001F7D4D4E907010843A16A2E4A490815
:100BB00002EB0141626A41EA8211084394F82C1069
:100BC00040EA0161C9F8001001203866FFF73CFDDA
:100BD000044606E03EE000BFFFF736FD001B02289A
:100BE00009D828688001F7D534E000BFFFF72CFD55
:100BF000001B022802D90320BDE8F88F2868800175
:100C0000F4D427E00128F7D0D9F80000E26900F415
:100C1000800191421CD1226A00F03F01914217D11C
:100C200047F6C071626A0140B1EB821F10D1A26A1F
:100C30004FF0FF3300F4403103EB5202B1EB024FAF
:100C400006D194F82C1000F07060B0EB016F01D069
:100C50000120D1E70020CFE70438024000004742DE
:100C6000800E4742007000400000FFFF10B5401E9C
:100C7000B0F1807F01D3012010BD4FF0E02460610E
:100C80000F21601700F0AFFB0020A061072020615A
:100C9000002010BD70B590F83C20012A32D001240C
:100CA00080F83C40022280F83D2003685A689D6825
:100CB00022F070060A6832435A60134B02689A4267
:100CC00014D0B2F1804F11D0104B9A420ED0104B7D
:100CD0009A420BD00F4B9A4208D00F4B9A4205D044
:100CE0000E4B9A4202D00E4B9A4204D1496825F02D
:100CF00080031943916080F83D40002180F83C104A
:100D0000084670BD022070BD000001400004004094
:100D100000080040000C0040000401400040014079
:100D20000018004010B586B0044614216846FFF74D
:100D300012FB0D492068884214D10C48002102683A
:100D400042F001020260006800F0010005904020BE
:100D500000900220CDE90101CDE903106946044865
:100D6000FFF774FB06B010BD0004004030380240AD
:100D70000000024070B5044690F83C0000260D4685
:100D800001280FD0012084F83C006AB1042A1DD04C
:100D9000082A2FD00C2A3FD00126002084F83C00DE
:100DA000304670BD022070BD206800F059FA2068FE
:100DB000816941F0080181612068816921F00401A5
:100DC0008161206881692A69114311E0206800F07F
:100DD00077FA2068816941F4006181612068816946
:100DE00021F480618161206881692A6941EA0221D8
:100DF0008161D2E7206800F099FA2068C16941F06A
:100E00000801C1612068C16921F00401C161206845
:100E1000C1692A69114311E0206800F0BBFA20681B
:100E2000C16941F40061C1612068C16921F4806138
:100E3000C1612068C1692A6941EA0221C161ACE748
:100E400010B5040003D094F83D0010B107E0012074
:100E500010BD002084F83C00204600F01FF802205E
:100E600084F83D00211D206800F080F9012084F8FD
:100E7000460084F83E0084F83F0084F8400084F87F
:100E8000410084F8420084F8430084F8440084F868
:100E9000450084F83D00002010BD000008B5006842
:100EA0000649884208D10648016841F00201016004
:100EB000006800F00200009008BD0000000400403F
:100EC0004038024010B50446022249B104290ED030
:100ED000082913D094F84100012816D0012010BD34
:100EE00094F83E000128F9D184F83E200FE094F8F0
:100EF0003F000128F2D184F83F2008E094F8400038
:100F00000128EBD184F8402001E084F8412001223F
:100F1000206800F097F916492068164A884201D0E7
:100F2000904203D1436C43F40043436420688842F9
:100F300013D0B0F1804F10D00F4988420DD00F4927
:100F400088420AD00E49884207D0904205D00D4908
:100F5000884202D00C49884204D1816801F007011F
:100F6000062903D0016841F001010160002010BD95
:100F7000000001400004014000040040000800405F
:100F8000000C00400040014000180040FEE7000057
:100F900030B587B014216846FFF7DDF91548002405
:100FA000016841F080010160016801F08001059154
:100FB000016841F001010160016801F00101059142
:100FC000016841F00201016000680B4D00F0020071
:100FD0000590002204212846FFF730FB04200090F2
:100FE0000120CDE90104694628460394FFF72EFA53
:100FF00007B030BD303802400004024010B58AB05E
:10100000002407941C2168460894FFF7A4F91648A9
:101010001449016042F2CF01C0E90114C721C0E9BF
:1010200003148461FFF70CFF08B1FFF7FAF9079486
:1010300007A90D480894FFF72DFE08B1FFF7F1F955
:101040006020CDE900040294002269460648049419
:10105000FFF790FE08B1FFF7E4F90348FFF762FEDF
:101060000AB010BD0004004018000020FEE7FEE7B3
:1010700070470000024AC2E90001FFF723BF0000E9
:1010800000000020B42800D9B42000EB80008000CC
:10109000B421B0FBF1F00949401D4A6809680968AC
:1010A0002AB1042A05D0082A05D00864704748638D
:1010B000704788637047C8637047000000000020D5
:1010C0007047FFF7C7BA000030B593B030216846CB
:1010D000FFF741F914210CA8FFF73DF91D48002541
:1010E000016841F080510160006800F0805011906B
:1010F0001948016841F4804101600068022400F44D
:101100008040119001200090000401908001CDE901
:10111000064008AA0420A82182E813000B90684624
:10112000FFF7EEFB08B172B6FEE70CA90F2081E8CD
:1011300031004FF4A0500F904FF4805010900521D3
:101140000CA8FFF713FB002801D072B6FEE713B01E
:1011500030BD000040380240007000400248016885
:1011600041F470010160704788ED00E0F0B502685D
:10117000294C2A4D2A4E2B4F2B4B4FF0804CA0422E
:1011800009D0604507D0A84205D0B04203D0B8428C
:1011900001D0984204D122F0700E4A6842EA0E0251
:1011A000A0421BD0604519D0A84217D0B04215D03C
:1011B000B84213D0984211D01C4DA8420ED01C4DFD
:1011C000A8420BD01B4DA84208D01B4DA84205D009
:1011D0001A4DA84202D01A4DA84203D122F44075FC
:1011E000CA682A434D6922F080022A4302608A6855
:1011F000C2620A688262A04201D0984201D10969A4
:101200000163012141610169C90703D0016921F02E
:1012100001010161F0BD0000000001400004004038
:1012200000080040000C0040000401400040014064
:10123000004401400048014000180040001C0040EC
:101240000020004010B501F01F030121046A9940FD
:101250008C430462016A9A401143016210BD000090
:10126000F0B5036A026A22F00102026242688469F0
:10127000124E24F073050C682C4323F002058B6892
:101280002B430D4DA84201D0B04205D123F00807F1
:10129000CB683B4323F00403A84201D0B04205D100
:1012A0004D6922F4407215438A692A434260846181
:1012B000496841630362F0BD000001400004014041
:1012C000F0B5026A036A23F010030362436884697D
:1012D0000D6824F4E64444EA05248D6822F02002D7
:1012E00042EA05120F4D104EA84201D0B04206D17D
:1012F000CF6822F0800242EA071222F04002A842A0
:1013000001D0B04207D14D6923F4406343EA85031D
:101310008D6943EA850343608461496881630262A1
:10132000F0BD00000000014000040140F0B5026A79
:10133000036A23F4807303624368C46922F4007271
:1013400024F073050C68124E2C438D6842EA052286
:101350000E4DA84201D0B04206D1CF6822F40062FF
:1013600042EA072222F48062A84201D0B04207D1AB
:101370004D6923F4405343EA05138D6943EA05138D
:101380004360C4614968C1630262F0BD000001406E
:101390000004014030B5046A026A22F480520262FD
:1013A0004268C3690D6823F4E64343EA05238D6868
:1013B00024F4005444EA0534084DA84202D0084DF4
:1013C000A84204D14D6922F4804242EA851242606B
:1013D000C36149680164046230BD0000000001403F
:1013E00000040140FEE70907090E002804DB00F1B4
:1013F000E02080F80014704700F00F0000F1E020BA
:1014000080F8141D70470000FFF72CF9FFF75CFE11
:10141000FFF7BEFDFFF7F2FD00210D48FFF72AFEA2
:1014200000242046FFF72EFE3220FEF7FDFF641D4C
:10143000E4B2B42CF5D9B4242046FFF723FE3220C1
:10144000FEF7F2FF641F14F0FF04F5D1E8E7000097
:10145000180000204FF04070E1EE100A70470000C5
:101460000000000000000102030406070809000054
:10147000901400080000002018000000C4010008BB
:10148000A814000818000020A8060000E0010008C9
:10149000000000000000000001000000100000003B
:0814A000000000000024F4002C
:040000050800018965
:00000001FF
